{
  "_format": "hh-sol-artifact-1",
  "contractName": "TrustChain",
  "sourceName": "contracts/TrustChain.sol",
  "abi": [
    {
      "inputs": [
        {
          "internalType": "address",
          "name": "_rtkAddress",
          "type": "address"
        }
      ],
      "stateMutability": "nonpayable",
      "type": "constructor"
    },
    {
      "anonymous": false,
      "inputs": [
        {
          "indexed": true,
          "internalType": "uint256",
          "name": "loanId",
          "type": "uint256"
        },
        {
          "indexed": true,
          "internalType": "address",
          "name": "lender",
          "type": "address"
        },
        {
          "indexed": false,
          "internalType": "uint256",
          "name": "timestamp",
          "type": "uint256"
        }
      ],
      "name": "AgreementProposed",
      "type": "event"
    },
    {
      "anonymous": false,
      "inputs": [
        {
          "indexed": true,
          "internalType": "uint256",
          "name": "loanId",
          "type": "uint256"
        },
        {
          "indexed": true,
          "internalType": "address",
          "name": "signer",
          "type": "address"
        },
        {
          "indexed": false,
          "internalType": "string",
          "name": "role",
          "type": "string"
        },
        {
          "indexed": false,
          "internalType": "uint256",
          "name": "timestamp",
          "type": "uint256"
        }
      ],
      "name": "AgreementSigned",
      "type": "event"
    },
    {
      "anonymous": false,
      "inputs": [
        {
          "indexed": true,
          "internalType": "uint256",
          "name": "loanId",
          "type": "uint256"
        },
        {
          "indexed": true,
          "internalType": "address",
          "name": "funder",
          "type": "address"
        },
        {
          "indexed": false,
          "internalType": "uint256",
          "name": "principal",
          "type": "uint256"
        }
      ],
      "name": "LoanFunded",
      "type": "event"
    },
    {
      "anonymous": false,
      "inputs": [
        {
          "indexed": true,
          "internalType": "uint256",
          "name": "loanId",
          "type": "uint256"
        },
        {
          "indexed": true,
          "internalType": "address",
          "name": "borrower",
          "type": "address"
        },
        {
          "indexed": false,
          "internalType": "uint256",
          "name": "totalRepaid",
          "type": "uint256"
        }
      ],
      "name": "LoanRepaid",
      "type": "event"
    },
    {
      "anonymous": false,
      "inputs": [
        {
          "indexed": true,
          "internalType": "uint256",
          "name": "loanId",
          "type": "uint256"
        },
        {
          "indexed": true,
          "internalType": "address",
          "name": "borrower",
          "type": "address"
        },
        {
          "indexed": false,
          "internalType": "uint256",
          "name": "principal",
          "type": "uint256"
        },
        {
          "indexed": false,
          "internalType": "uint256",
          "name": "interestRate",
          "type": "uint256"
        },
        {
          "indexed": false,
          "internalType": "string",
          "name": "purpose",
          "type": "string"
        }
      ],
      "name": "LoanRequested",
      "type": "event"
    },
    {
      "anonymous": false,
      "inputs": [
        {
          "indexed": true,
          "internalType": "address",
          "name": "endorser",
          "type": "address"
        },
        {
          "indexed": true,
          "internalType": "address",
          "name": "endorsee",
          "type": "address"
        },
        {
          "indexed": false,
          "internalType": "uint256",
          "name": "newScore",
          "type": "uint256"
        }
      ],
      "name": "UserEndorsed",
      "type": "event"
    },
    {
      "anonymous": false,
      "inputs": [
        {
          "indexed": true,
          "internalType": "address",
          "name": "user",
          "type": "address"
        },
        {
          "indexed": false,
          "internalType": "uint256",
          "name": "initialScore",
          "type": "uint256"
        }
      ],
      "name": "UserRegistered",
      "type": "event"
    },
    {
      "inputs": [],
      "name": "BASE_TRUST_SCORE",
      "outputs": [
        {
          "internalType": "uint256",
          "name": "",
          "type": "uint256"
        }
      ],
      "stateMutability": "view",
      "type": "function"
    },
    {
      "inputs": [],
      "name": "ENDORSE_SCORE_REWARD",
      "outputs": [
        {
          "internalType": "uint256",
          "name": "",
          "type": "uint256"
        }
      ],
      "stateMutability": "view",
      "type": "function"
    },
    {
      "inputs": [],
      "name": "FUND_SCORE_REWARD",
      "outputs": [
        {
          "internalType": "uint256",
          "name": "",
          "type": "uint256"
        }
      ],
      "stateMutability": "view",
      "type": "function"
    },
    {
      "inputs": [],
      "name": "REPAY_SCORE_REWARD",
      "outputs": [
        {
          "internalType": "uint256",
          "name": "",
          "type": "uint256"
        }
      ],
      "stateMutability": "view",
      "type": "function"
    },
    {
      "inputs": [
        {
          "internalType": "address",
          "name": "_user",
          "type": "address"
        }
      ],
      "name": "computeInterestRate",
      "outputs": [
        {
          "internalType": "uint256",
          "name": "",
          "type": "uint256"
        }
      ],
      "stateMutability": "view",
      "type": "function"
    },
    {
      "inputs": [
        {
          "internalType": "address",
          "name": "_endorsee",
          "type": "address"
        }
      ],
      "name": "endorseUser",
      "outputs": [],
      "stateMutability": "nonpayable",
      "type": "function"
    },
    {
      "inputs": [
        {
          "internalType": "uint256",
          "name": "_loanId",
          "type": "uint256"
        }
      ],
      "name": "fundLoan",
      "outputs": [],
      "stateMutability": "nonpayable",
      "type": "function"
    },
    {
      "inputs": [
        {
          "internalType": "uint256",
          "name": "_loanId",
          "type": "uint256"
        }
      ],
      "name": "getAgreementStatus",
      "outputs": [
        {
          "internalType": "bool",
          "name": "lenderSigned",
          "type": "bool"
        },
        {
          "internalType": "bool",
          "name": "borrowerSigned",
          "type": "bool"
        },
        {
          "internalType": "address",
          "name": "proposedFunder",
          "type": "address"
        },
        {
          "internalType": "bool",
          "name": "bothSigned",
          "type": "bool"
        }
      ],
      "stateMutability": "view",
      "type": "function"
    },
    {
      "inputs": [],
      "name": "getLoanCount",
      "outputs": [
        {
          "internalType": "uint256",
          "name": "",
          "type": "uint256"
        }
      ],
      "stateMutability": "view",
      "type": "function"
    },
    {
      "inputs": [
        {
          "internalType": "address",
          "name": "_user",
          "type": "address"
        }
      ],
      "name": "getTrustScore",
      "outputs": [
        {
          "internalType": "uint256",
          "name": "",
          "type": "uint256"
        }
      ],
      "stateMutability": "view",
      "type": "function"
    },
    {
      "inputs": [
        {
          "internalType": "address",
          "name": "",
          "type": "address"
        },
        {
          "internalType": "address",
          "name": "",
          "type": "address"
        }
      ],
      "name": "hasEndorsed",
      "outputs": [
        {
          "internalType": "bool",
          "name": "",
          "type": "bool"
        }
      ],
      "stateMutability": "view",
      "type": "function"
    },
    {
      "inputs": [],
      "name": "loanCounter",
      "outputs": [
        {
          "internalType": "uint256",
          "name": "",
          "type": "uint256"
        }
      ],
      "stateMutability": "view",
      "type": "function"
    },
    {
      "inputs": [
        {
          "internalType": "uint256",
          "name": "",
          "type": "uint256"
        }
      ],
      "name": "loans",
      "outputs": [
        {
          "internalType": "uint256",
          "name": "id",
          "type": "uint256"
        },
        {
          "internalType": "address",
          "name": "borrower",
          "type": "address"
        },
        {
          "internalType": "address",
          "name": "funder",
          "type": "address"
        },
        {
          "internalType": "uint256",
          "name": "principal",
          "type": "uint256"
        },
        {
          "internalType": "uint256",
          "name": "interestRate",
          "type": "uint256"
        },
        {
          "internalType": "uint256",
          "name": "totalOwed",
          "type": "uint256"
        },
        {
          "internalType": "string",
          "name": "purpose",
          "type": "string"
        },
        {
          "internalType": "enum TrustChain.LoanStatus",
          "name": "status",
          "type": "uint8"
        },
        {
          "internalType": "uint256",
          "name": "fundedAt",
          "type": "uint256"
        },
        {
          "internalType": "bool",
          "name": "lenderSigned",
          "type": "bool"
        },
        {
          "internalType": "bool",
          "name": "borrowerSigned",
          "type": "bool"
        },
        {
          "internalType": "uint256",
          "name": "lenderSignedAt",
          "type": "uint256"
        },
        {
          "internalType": "uint256",
          "name": "borrowerSignedAt",
          "type": "uint256"
        },
        {
          "internalType": "address",
          "name": "proposedFunder",
          "type": "address"
        }
      ],
      "stateMutability": "view",
      "type": "function"
    },
    {
      "inputs": [],
      "name": "registerUser",
      "outputs": [],
      "stateMutability": "nonpayable",
      "type": "function"
    },
    {
      "inputs": [
        {
          "internalType": "uint256",
          "name": "_loanId",
          "type": "uint256"
        }
      ],
      "name": "repayLoan",
      "outputs": [],
      "stateMutability": "nonpayable",
      "type": "function"
    },
    {
      "inputs": [
        {
          "internalType": "uint256",
          "name": "_principal",
          "type": "uint256"
        },
        {
          "internalType": "string",
          "name": "_purpose",
          "type": "string"
        }
      ],
      "name": "requestLoan",
      "outputs": [],
      "stateMutability": "nonpayable",
      "type": "function"
    },
    {
      "inputs": [],
      "name": "rtkToken",
      "outputs": [
        {
          "internalType": "contract IERC20",
          "name": "",
          "type": "address"
        }
      ],
      "stateMutability": "view",
      "type": "function"
    },
    {
      "inputs": [
        {
          "internalType": "uint256",
          "name": "_loanId",
          "type": "uint256"
        }
      ],
      "name": "signAgreementAsBorrower",
      "outputs": [],
      "stateMutability": "nonpayable",
      "type": "function"
    },
    {
      "inputs": [
        {
          "internalType": "uint256",
          "name": "_loanId",
          "type": "uint256"
        }
      ],
      "name": "signAgreementAsLender",
      "outputs": [],
      "stateMutability": "nonpayable",
      "type": "function"
    },
    {
      "inputs": [
        {
          "internalType": "address",
          "name": "",
          "type": "address"
        }
      ],
      "name": "users",
      "outputs": [
        {
          "internalType": "bool",
          "name": "isRegistered",
          "type": "bool"
        },
        {
          "internalType": "uint256",
          "name": "trustScore",
          "type": "uint256"
        },
        {
          "internalType": "uint256",
          "name": "loansRepaid",
          "type": "uint256"
        },
        {
          "internalType": "uint256",
          "name": "loansDefaulted",
          "type": "uint256"
        }
      ],
      "stateMutability": "view",
      "type": "function"
    }
  ],
  "bytecode": "0x6080346100c957601f61187038819003918201601f19168301916001600160401b038311848410176100ce578084926020946040528339810103126100c957516001600160a01b038116908190036100c957801561007a57600480546001600160a01b03191691909117905560405161178b90816100e58239f35b60405162461bcd60e51b815260206004820152602160248201527f5472757374436861696e3a20696e76616c696420746f6b656e206164647265736044820152607360f81b6064820152608490fd5b600080fd5b634e487b7160e01b600052604160045260246000fdfe6080604052600436101561001257600080fd5b60003560e01c80631e75dc871461142d5780631edd910d146113d357806323d58c731461136457806328ebd87e1461134857806334d9289e146110195780633620ea931461131f57806339a811ee146111455780634d3820eb1461103757806352196812146110195780635e09eea114610fdc5780636c79e16714610b3e578063846b909a14610811578063870fb6ce1461065957806391612a321461063d578063a3fccc02146105f8578063a87430ba14610597578063ab7b1c891461030f578063ccb86874146102f3578063e1ec3c68146101195763efaea56f146100f857600080fd5b3461011457600036600319011261011457602060405160028152f35b600080fd5b3461011457602036600319011261011457600435600052600160205260206040600020805460018060a01b036001830154169060018060a01b036002840154169160038401549360048101549360058201546040516000816006860154916101808361161e565b80835292600181169081156102d65750600114610296575b6101a492500382611658565b60ff60078501541691600885015497600986015499600a87015495600b88015497600c60018060a01b0391015416986040519d8e6101c09c8152015260408d015260608c015260808b015260a08a01528560c08a0152805180968a015260005b86811061027f5750506101e096600088878b010152600382101561026957889660ff9260e0890152610100880152818116151561012088015260081c1615156101408601526101608501526101808401526101a0830152601f80199101168101030190f35b634e487b7160e01b600052602160045260246000fd5b8060208092840101516101e0828d01015201610204565b5090600686016000528a600020906000915b8183106102bf575050908a6101a492820101610198565b80548584018e0152849350918c01916001016102a8565b60ff1916838e0152506101a492151560051b82018c019050610198565b3461011457600036600319011261011457602060405160328152f35b346101145760208060031936011261011457600435336000526000825261033d60ff6040600020541661167a565b80600052600182526040600020600781019081549160ff83166003811015610269576001036105525760018201546001600160a01b0393908416330361050157600260ff199190911681179091556004805491830154600590930180546040516323b872dd60e01b815233938101939093529385166001600160a01b0316602483015260448201939093529192859183916064918391600091165af19081156104f5576000916104c8575b50156104715733600052600083526001604060002001805490600a820180921161045b5755336000526000835260026040600020019081546001810180911161045b577f512d3e65b3e58c2187bb1872aa435dba5bd09c1c03823ba56ab70aac411e4a21925554926040519384523393a3005b634e487b7160e01b600052601160045260246000fd5b60405162461bcd60e51b815260048101849052602960248201527f5472757374436861696e3a2052544b2072657061796d656e74207472616e7366604482015268195c8819985a5b195960ba1b6064820152608490fd5b6104e89150843d86116104ee575b6104e08183611658565b81019061171c565b846103e8565b503d6104d6565b6040513d6000823e3d90fd5b60405162461bcd60e51b815260048101879052602360248201527f5472757374436861696e3a206f6e6c7920626f72726f7765722063616e20726560448201526270617960e81b6064820152608490fd5b60405162461bcd60e51b815260048101869052601b60248201527f5472757374436861696e3a206c6f616e206e6f742061637469766500000000006044820152606490fd5b34610114576020366003190112610114576001600160a01b036105b8611608565b1660005260006020526080604060002060ff8154169060018101549060036002820154910154916040519315158452602084015260408301526060820152f35b34610114576020366003190112610114576001600160a01b03610619611608565b1660005260006020526020610635600160406000200154611734565b604051908152f35b34610114576000366003190112610114576020604051600a8152f35b346101145760208060031936011261011457600435336000526000825261068760ff6040600020541661167a565b8060005260018252604060002060ff6007820154166003811015610269576106af90156116d0565b60018101546001600160a01b031633146107be5760098101805460ff811661076f57906001600c939260ff191617905542600a82015501336001600160601b0360a01b825416179055604051428152817f78d419be3e130f144d8704456d8ace4be8e9ba996dcf738efa190dc5406a9eb5843393a3604051916040835260066040840152653632b73232b960d11b606084015242908301527f6c56c94f2da7531e3fa2d7263d4f2e091ab52db1d545c0083231fe73e2d35de160803393a3005b60405162461bcd60e51b815260048101869052602160248201527f5472757374436861696e3a206c656e64657220616c7265616479207369676e656044820152601960fa1b6064820152608490fd5b60405162461bcd60e51b815260048101849052602560248201527f5472757374436861696e3a20626f72726f7765722063616e6e6f74206265206c60448201526432b73232b960d91b6064820152608490fd5b346101145760208060031936011261011457600435336000526000825261083f60ff6040600020541661167a565b806000526001825260406000206007810180549060ff8216600381101561026957610af95760018301546001600160a01b0390811692909190338414610ab65782600c860154163303610a5a57600985015460ff81169081610a4c575b50156109e85760ff191660011790556002830180546001600160a01b031916339081179091554260088501556004805460039590950180546040516323b872dd60e01b8152928301939093526001600160a01b039094166024820152604481019190915291928591839116816000816064810103925af19081156104f5576000916109cb575b501561097657336000526000835260016040600020019081546002810180911161045b577fbd7ef6c6281278f6c8ac4ae9ef2f205b52425813c288dd47c377cb6b59c5076e925554926040519384523393a3005b60405162461bcd60e51b815260048101849052602760248201527f5472757374436861696e3a2052544b2066756e64696e67207472616e736665726044820152660819985a5b195960ca1b6064820152608490fd5b6109e29150843d86116104ee576104e08183611658565b84610922565b60405162461bcd60e51b815260048101889052603660248201527f5472757374436861696e3a2061677265656d656e74206e6f742066756c6c79206044820152757369676e656420627920626f7468207061727469657360501b6064820152608490fd5b60ff915060081c168861089c565b60405162461bcd60e51b815260048101889052602e60248201527f5472757374436861696e3a206f6e6c79207468652070726f706f73696e67206c60448201526d195b99195c8818d85b88199d5b9960921b6064820152608490fd5b6064876040519062461bcd60e51b825280600483015260248201527f5472757374436861696e3a2063616e6e6f742066756e64206f776e206c6f616e6044820152fd5b60405162461bcd60e51b815260048101869052601e60248201527f5472757374436861696e3a206c6f616e206e6f7420617661696c61626c6500006044820152606490fd5b346101145760403660031901126101145760243567ffffffffffffffff811161011457366023820112156101145767ffffffffffffffff8160040135116101145736602482600401358301011161011457336000526000602052610ba960ff6040600020541661167a565b60043515610f8d57336000526000602052610bcb600160406000200154611734565b908160043502916004358304810361045b5760648304600435016004351161045b57600354604051936101c085019085821067ffffffffffffffff831117610f7757606491604052828652336020870152600060408701526004356060870152836080870152046004350160a0850152604051610c566020601f19601f876004013501160182611658565b60048401358082526024850160208301376000602085600401358301015260c0850152600060e08501526000610100850152600061012085015260006101408501526000610160850152600061018085015260006101a085015260005260016020526040600020928051845560018060a01b036020820151166001600160601b0360a01b6001860154161760018501556002840160018060a01b036040830151166001600160601b0360a01b825416179055606081015160038501556080810151600485015560a0810151600585015560c081015180519067ffffffffffffffff8211610f77578190610d4c600688015461161e565b601f8111610f24575b50602090601f8311600114610eb257600092610ea7575b50508160011b916000199060031b1c19161760068501555b60e081015160038110156102695760078501805460ff92831660ff1991821617909155610100830151600887015561012083015160098701805491151590931691161781557f7b6ba427d6069eeb2637d7d2bb04f521157dd7df5da9e39b8bf1a2e7100c1b0394600c91610140840151151561ff0082549160081b169061ff001916179055610160830151600a820155610180830151600b82015501906101a060018060a01b03910151166001600160601b0360a01b825416179055600354928391604051906004358252602082015260606040820152836004013560608201528360040135602485016080830137600060808560040135830101526080813395601f8019916004013501168101030190a3600019811461045b57600101600355005b015190508680610d6c565b9250600687016000526020600020906000935b601f1984168510610f09576001945083601f19811610610ef0575b505050811b016006850155610d84565b015160001960f88460031b161c19169055868080610ee0565b81810151835560209485019460019093019290910190610ec5565b909150600687016000526020600020601f840160051c810160208510610f70575b90849392915b601f830160051c82018110610f61575050610d55565b60008155859450600101610f4b565b5080610f45565b634e487b7160e01b600052604160045260246000fd5b60405162461bcd60e51b815260206004820152602160248201527f5472757374436861696e3a207072696e636970616c206d757374206265203e206044820152600360fc1b6064820152608490fd5b34610114576020366003190112610114576001600160a01b03610ffd611608565b1660005260006020526020600160406000200154604051908152f35b34610114576000366003190112610114576020600354604051908152f35b346101145760003660031901126101145733600052600060205260ff60406000205416611100576040516080810181811067ffffffffffffffff821117610f7757604052600181526003602082016032815260408301600081526060840191600083523360005260006020526110c1604060002095511515869060ff801983541691151516179055565b51600185015551600284015551910155604051603281527fe29d35093005f4d575e1003753426b57a7f64378ba73332eef9c6ccc2b8decd660203392a2005b60405162461bcd60e51b815260206004820152601e60248201527f5472757374436861696e3a20616c7265616479207265676973746572656400006044820152606490fd5b34610114576020806003193601126101145761115f611608565b336000526000825261117860ff6040600020541661167a565b6001600160a01b03166000818152808352604090205490919060ff16156112cf5781331461127f573360005260028152604060002082600052815260ff6040600020541661123b57336000526002815260406000208260005281526040600020600160ff198254161790556000815260016040600020018054906005820180921161045b575581600052600081527ec908494d3f682d49ae1ea44ab67b0149b97bac6bf2d8dde60789afd8105cd6600160406000200154916040519283523392a3005b6064906040519062461bcd60e51b82526004820152601c60248201527f5472757374436861696e3a20616c726561647920656e646f72736564000000006044820152fd5b6084906040519062461bcd60e51b82526004820152602360248201527f5472757374436861696e3a2063616e6e6f7420656e646f72736520796f75727360448201526232b63360e91b6064820152fd5b6084906040519062461bcd60e51b82526004820152602360248201527f5472757374436861696e3a20656e646f72736565206e6f7420726567697374656044820152621c995960ea1b6064820152fd5b34610114576000366003190112610114576004546040516001600160a01b039091168152602090f35b3461011457600036600319011261011457602060405160058152f35b34610114576020366003190112610114576004356000526001602052608060ff604060002060098101549082821692839260081c1690600c60018060a01b039101541690826113cb575b604051931515845215156020840152604083015215156060820152f35b9150816113ae565b34610114576040366003190112610114576113ec611608565b6001600160a01b03602435818116929083900361011457166000526002602052604060002090600052602052602060ff604060002054166040519015158152f35b346101145760208060031936011261011457600435336000526000825261145b60ff6040600020541661167a565b8060005260018252604060002060ff60078201541660038110156102695761148390156116d0565b60018101546001600160a01b031633036115b15760098101805460ff8116156115615760ff8160081c16611510576101009061ff001916179055600b42910155604051916040835260086040840152673137b93937bbb2b960c11b606084015242908301527f6c56c94f2da7531e3fa2d7263d4f2e091ab52db1d545c0083231fe73e2d35de160803393a3005b60405162461bcd60e51b815260048101869052602360248201527f5472757374436861696e3a20626f72726f77657220616c7265616479207369676044820152621b995960ea1b6064820152608490fd5b60405162461bcd60e51b815260048101869052602260248201527f5472757374436861696e3a206c656e646572206d757374207369676e206669726044820152611cdd60f21b6064820152608490fd5b60405162461bcd60e51b815260048101849052602960248201527f5472757374436861696e3a206f6e6c7920626f72726f7765722063616e20636f6044820152683ab73a32b939b4b3b760b91b6064820152608490fd5b600435906001600160a01b038216820361011457565b90600182811c9216801561164e575b602083101461163857565b634e487b7160e01b600052602260045260246000fd5b91607f169161162d565b90601f8019910116810190811067ffffffffffffffff821117610f7757604052565b1561168157565b60405162461bcd60e51b815260206004820152602160248201527f5472757374436861696e3a2063616c6c6572206e6f74207265676973746572656044820152601960fa1b6064820152608490fd5b156116d757565b60405162461bcd60e51b815260206004820152601c60248201527f5472757374436861696e3a206c6f616e206e6f742070656e64696e67000000006044820152606490fd5b90816020910312610114575180151581036101145790565b605081101561174f57603c111561174a57601490565b601090565b50600c9056fea2646970667358221220861fdbb97391f53523716b1432c029528f4ebd4aa0ef9d4979fc0234e69ce28264736f6c63430008180033",
  "linkReferences": {},
  "deployedLinkReferences": {}
}