{
  "_format": "hh-sol-artifact-1",
  "contractName": "TrustChain",
  "sourceName": "contracts/TrustChain.sol",
  "abi": [
    {
      "anonymous": false,
      "inputs": [
        {
          "indexed": true,
          "internalType": "uint256",
          "name": "loanId",
          "type": "uint256"
        },
        {
          "indexed": true,
          "internalType": "address",
          "name": "funder",
          "type": "address"
        },
        {
          "indexed": false,
          "internalType": "uint256",
          "name": "principal",
          "type": "uint256"
        }
      ],
      "name": "LoanFunded",
      "type": "event"
    },
    {
      "anonymous": false,
      "inputs": [
        {
          "indexed": true,
          "internalType": "uint256",
          "name": "loanId",
          "type": "uint256"
        },
        {
          "indexed": true,
          "internalType": "address",
          "name": "borrower",
          "type": "address"
        },
        {
          "indexed": false,
          "internalType": "uint256",
          "name": "totalRepaid",
          "type": "uint256"
        }
      ],
      "name": "LoanRepaid",
      "type": "event"
    },
    {
      "anonymous": false,
      "inputs": [
        {
          "indexed": true,
          "internalType": "uint256",
          "name": "loanId",
          "type": "uint256"
        },
        {
          "indexed": true,
          "internalType": "address",
          "name": "borrower",
          "type": "address"
        },
        {
          "indexed": false,
          "internalType": "uint256",
          "name": "principal",
          "type": "uint256"
        },
        {
          "indexed": false,
          "internalType": "uint256",
          "name": "interestRate",
          "type": "uint256"
        },
        {
          "indexed": false,
          "internalType": "string",
          "name": "purpose",
          "type": "string"
        }
      ],
      "name": "LoanRequested",
      "type": "event"
    },
    {
      "anonymous": false,
      "inputs": [
        {
          "indexed": true,
          "internalType": "address",
          "name": "endorser",
          "type": "address"
        },
        {
          "indexed": true,
          "internalType": "address",
          "name": "endorsee",
          "type": "address"
        },
        {
          "indexed": false,
          "internalType": "uint256",
          "name": "newScore",
          "type": "uint256"
        }
      ],
      "name": "UserEndorsed",
      "type": "event"
    },
    {
      "anonymous": false,
      "inputs": [
        {
          "indexed": true,
          "internalType": "address",
          "name": "user",
          "type": "address"
        },
        {
          "indexed": false,
          "internalType": "uint256",
          "name": "initialScore",
          "type": "uint256"
        }
      ],
      "name": "UserRegistered",
      "type": "event"
    },
    {
      "inputs": [],
      "name": "BASE_TRUST_SCORE",
      "outputs": [
        {
          "internalType": "uint256",
          "name": "",
          "type": "uint256"
        }
      ],
      "stateMutability": "view",
      "type": "function"
    },
    {
      "inputs": [],
      "name": "ENDORSE_SCORE_REWARD",
      "outputs": [
        {
          "internalType": "uint256",
          "name": "",
          "type": "uint256"
        }
      ],
      "stateMutability": "view",
      "type": "function"
    },
    {
      "inputs": [],
      "name": "FUND_SCORE_REWARD",
      "outputs": [
        {
          "internalType": "uint256",
          "name": "",
          "type": "uint256"
        }
      ],
      "stateMutability": "view",
      "type": "function"
    },
    {
      "inputs": [],
      "name": "REPAY_SCORE_REWARD",
      "outputs": [
        {
          "internalType": "uint256",
          "name": "",
          "type": "uint256"
        }
      ],
      "stateMutability": "view",
      "type": "function"
    },
    {
      "inputs": [
        {
          "internalType": "address",
          "name": "_user",
          "type": "address"
        }
      ],
      "name": "computeInterestRate",
      "outputs": [
        {
          "internalType": "uint256",
          "name": "",
          "type": "uint256"
        }
      ],
      "stateMutability": "view",
      "type": "function"
    },
    {
      "inputs": [
        {
          "internalType": "address",
          "name": "_endorsee",
          "type": "address"
        }
      ],
      "name": "endorseUser",
      "outputs": [],
      "stateMutability": "nonpayable",
      "type": "function"
    },
    {
      "inputs": [
        {
          "internalType": "uint256",
          "name": "_loanId",
          "type": "uint256"
        }
      ],
      "name": "fundLoan",
      "outputs": [],
      "stateMutability": "payable",
      "type": "function"
    },
    {
      "inputs": [],
      "name": "getLoanCount",
      "outputs": [
        {
          "internalType": "uint256",
          "name": "",
          "type": "uint256"
        }
      ],
      "stateMutability": "view",
      "type": "function"
    },
    {
      "inputs": [
        {
          "internalType": "address",
          "name": "_user",
          "type": "address"
        }
      ],
      "name": "getTrustScore",
      "outputs": [
        {
          "internalType": "uint256",
          "name": "",
          "type": "uint256"
        }
      ],
      "stateMutability": "view",
      "type": "function"
    },
    {
      "inputs": [
        {
          "internalType": "address",
          "name": "",
          "type": "address"
        },
        {
          "internalType": "address",
          "name": "",
          "type": "address"
        }
      ],
      "name": "hasEndorsed",
      "outputs": [
        {
          "internalType": "bool",
          "name": "",
          "type": "bool"
        }
      ],
      "stateMutability": "view",
      "type": "function"
    },
    {
      "inputs": [],
      "name": "loanCounter",
      "outputs": [
        {
          "internalType": "uint256",
          "name": "",
          "type": "uint256"
        }
      ],
      "stateMutability": "view",
      "type": "function"
    },
    {
      "inputs": [
        {
          "internalType": "uint256",
          "name": "",
          "type": "uint256"
        }
      ],
      "name": "loans",
      "outputs": [
        {
          "internalType": "uint256",
          "name": "id",
          "type": "uint256"
        },
        {
          "internalType": "address",
          "name": "borrower",
          "type": "address"
        },
        {
          "internalType": "address",
          "name": "funder",
          "type": "address"
        },
        {
          "internalType": "uint256",
          "name": "principal",
          "type": "uint256"
        },
        {
          "internalType": "uint256",
          "name": "interestRate",
          "type": "uint256"
        },
        {
          "internalType": "uint256",
          "name": "totalOwed",
          "type": "uint256"
        },
        {
          "internalType": "string",
          "name": "purpose",
          "type": "string"
        },
        {
          "internalType": "enum TrustChain.LoanStatus",
          "name": "status",
          "type": "uint8"
        },
        {
          "internalType": "uint256",
          "name": "fundedAt",
          "type": "uint256"
        }
      ],
      "stateMutability": "view",
      "type": "function"
    },
    {
      "inputs": [],
      "name": "registerUser",
      "outputs": [],
      "stateMutability": "nonpayable",
      "type": "function"
    },
    {
      "inputs": [
        {
          "internalType": "uint256",
          "name": "_loanId",
          "type": "uint256"
        }
      ],
      "name": "repayLoan",
      "outputs": [],
      "stateMutability": "payable",
      "type": "function"
    },
    {
      "inputs": [
        {
          "internalType": "uint256",
          "name": "_principal",
          "type": "uint256"
        },
        {
          "internalType": "string",
          "name": "_purpose",
          "type": "string"
        }
      ],
      "name": "requestLoan",
      "outputs": [],
      "stateMutability": "nonpayable",
      "type": "function"
    },
    {
      "inputs": [
        {
          "internalType": "address",
          "name": "",
          "type": "address"
        }
      ],
      "name": "users",
      "outputs": [
        {
          "internalType": "bool",
          "name": "isRegistered",
          "type": "bool"
        },
        {
          "internalType": "uint256",
          "name": "trustScore",
          "type": "uint256"
        },
        {
          "internalType": "uint256",
          "name": "loansRepaid",
          "type": "uint256"
        },
        {
          "internalType": "uint256",
          "name": "loansDefaulted",
          "type": "uint256"
        }
      ],
      "stateMutability": "view",
      "type": "function"
    }
  ],
  "bytecode": "0x608060405234801561001057600080fd5b5061280d806100206000396000f3fe6080604052600436106100f35760003560e01c8063846b909a1161008a578063ab7b1c8911610059578063ab7b1c8914610320578063ccb868741461033c578063e1ec3c6814610367578063efaea56f146103ac576100f3565b8063846b909a1461025c57806391612a3214610278578063a3fccc02146102a3578063a87430ba146102e0576100f3565b80634d3820eb116100c65780634d3820eb146101b457806352196812146101cb5780635e09eea1146101f65780636c79e16714610233576100f3565b80631edd910d146100f857806328ebd87e1461013557806334d9289e1461016057806339a811ee1461018b575b600080fd5b34801561010457600080fd5b5061011f600480360381019061011a91906117bf565b6103d7565b60405161012c919061181a565b60405180910390f35b34801561014157600080fd5b5061014a610406565b604051610157919061184e565b60405180910390f35b34801561016c57600080fd5b5061017561040b565b604051610182919061184e565b60405180910390f35b34801561019757600080fd5b506101b260048036038101906101ad9190611869565b610411565b005b3480156101c057600080fd5b506101c96107fb565b005b3480156101d757600080fd5b506101e0610981565b6040516101ed919061184e565b60405180910390f35b34801561020257600080fd5b5061021d60048036038101906102189190611869565b61098b565b60405161022a919061184e565b60405180910390f35b34801561023f57600080fd5b5061025a60048036038101906102559190611927565b6109d6565b005b61027660048036038101906102719190611987565b610d84565b005b34801561028457600080fd5b5061028d61116f565b60405161029a919061184e565b60405180910390f35b3480156102af57600080fd5b506102ca60048036038101906102c59190611869565b611174565b6040516102d7919061184e565b60405180910390f35b3480156102ec57600080fd5b5061030760048036038101906103029190611869565b6111c7565b60405161031794939291906119b4565b60405180910390f35b61033a60048036038101906103359190611987565b611204565b005b34801561034857600080fd5b506103516115fc565b60405161035e919061184e565b60405180910390f35b34801561037357600080fd5b5061038e60048036038101906103899190611987565b611601565b6040516103a399989796959493929190611b0f565b60405180910390f35b3480156103b857600080fd5b506103c1611724565b6040516103ce919061184e565b60405180910390f35b60026020528160005260406000206020528060005260406000206000915091509054906101000a900460ff1681565b600581565b60035481565b6000803373ffffffffffffffffffffffffffffffffffffffff1673ffffffffffffffffffffffffffffffffffffffff16815260200190815260200160002060000160009054906101000a900460ff1661049f576040517f08c379a000000000000000000000000000000000000000000000000000000000815260040161049690611c15565b60405180910390fd5b6000808273ffffffffffffffffffffffffffffffffffffffff1673ffffffffffffffffffffffffffffffffffffffff16815260200190815260200160002060000160009054906101000a900460ff1661052d576040517f08c379a000000000000000000000000000000000000000000000000000000000815260040161052490611ca7565b60405180910390fd5b8073ffffffffffffffffffffffffffffffffffffffff163373ffffffffffffffffffffffffffffffffffffffff160361059b576040517f08c379a000000000000000000000000000000000000000000000000000000000815260040161059290611d39565b60405180910390fd5b600260003373ffffffffffffffffffffffffffffffffffffffff1673ffffffffffffffffffffffffffffffffffffffff16815260200190815260200160002060008273ffffffffffffffffffffffffffffffffffffffff1673ffffffffffffffffffffffffffffffffffffffff16815260200190815260200160002060009054906101000a900460ff1615610665576040517f08c379a000000000000000000000000000000000000000000000000000000000815260040161065c90611da5565b60405180910390fd5b6001600260003373ffffffffffffffffffffffffffffffffffffffff1673ffffffffffffffffffffffffffffffffffffffff16815260200190815260200160002060008373ffffffffffffffffffffffffffffffffffffffff1673ffffffffffffffffffffffffffffffffffffffff16815260200190815260200160002060006101000a81548160ff02191690831515021790555060056000808373ffffffffffffffffffffffffffffffffffffffff1673ffffffffffffffffffffffffffffffffffffffff168152602001908152602001600020600101600082825461074c9190611df4565b925050819055508073ffffffffffffffffffffffffffffffffffffffff163373ffffffffffffffffffffffffffffffffffffffff167ec908494d3f682d49ae1ea44ab67b0149b97bac6bf2d8dde60789afd8105cd66000808573ffffffffffffffffffffffffffffffffffffffff1673ffffffffffffffffffffffffffffffffffffffff168152602001908152602001600020600101546040516107f0919061184e565b60405180910390a350565b6000803373ffffffffffffffffffffffffffffffffffffffff1673ffffffffffffffffffffffffffffffffffffffff16815260200190815260200160002060000160009054906101000a900460ff161561088a576040517f08c379a000000000000000000000000000000000000000000000000000000000815260040161088190611e74565b60405180910390fd5b6040518060800160405280600115158152602001603281526020016000815260200160008152506000803373ffffffffffffffffffffffffffffffffffffffff1673ffffffffffffffffffffffffffffffffffffffff16815260200190815260200160002060008201518160000160006101000a81548160ff0219169083151502179055506020820151816001015560408201518160020155606082015181600301559050503373ffffffffffffffffffffffffffffffffffffffff167fe29d35093005f4d575e1003753426b57a7f64378ba73332eef9c6ccc2b8decd66032604051610977919061184e565b60405180910390a2565b6000600354905090565b60008060008373ffffffffffffffffffffffffffffffffffffffff1673ffffffffffffffffffffffffffffffffffffffff168152602001908152602001600020600101549050919050565b6000803373ffffffffffffffffffffffffffffffffffffffff1673ffffffffffffffffffffffffffffffffffffffff16815260200190815260200160002060000160009054906101000a900460ff16610a64576040517f08c379a0000000000000000000000000000000000000000000000000000000008152600401610a5b90611c15565b60405180910390fd5b60008311610aa7576040517f08c379a0000000000000000000000000000000000000000000000000000000008152600401610a9e90611f06565b60405180910390fd5b60008060003373ffffffffffffffffffffffffffffffffffffffff1673ffffffffffffffffffffffffffffffffffffffff1681526020019081526020016000206001015490506000610af882611729565b9050600060648287610b0a9190611f26565b610b149190611f97565b905060008187610b249190611df4565b905060405180610120016040528060035481526020013373ffffffffffffffffffffffffffffffffffffffff168152602001600073ffffffffffffffffffffffffffffffffffffffff16815260200188815260200184815260200182815260200187878080601f016020809104026020016040519081016040528093929190818152602001838380828437600081840152601f19601f82011690508083019250505050505050815260200160006002811115610be357610be2611a98565b5b815260200160008152506001600060035481526020019081526020016000206000820151816000015560208201518160010160006101000a81548173ffffffffffffffffffffffffffffffffffffffff021916908373ffffffffffffffffffffffffffffffffffffffff16021790555060408201518160020160006101000a81548173ffffffffffffffffffffffffffffffffffffffff021916908373ffffffffffffffffffffffffffffffffffffffff160217905550606082015181600301556080820151816004015560a0820151816005015560c0820151816006019081610ccd9190612203565b5060e08201518160070160006101000a81548160ff02191690836002811115610cf957610cf8611a98565b5b021790555061010082015181600801559050503373ffffffffffffffffffffffffffffffffffffffff166003547f7b6ba427d6069eeb2637d7d2bb04f521157dd7df5da9e39b8bf1a2e7100c1b0389868a8a604051610d5b9493929190612311565b60405180910390a360036000815480929190610d7690612351565b919050555050505050505050565b6000803373ffffffffffffffffffffffffffffffffffffffff1673ffffffffffffffffffffffffffffffffffffffff16815260200190815260200160002060000160009054906101000a900460ff16610e12576040517f08c379a0000000000000000000000000000000000000000000000000000000008152600401610e0990611c15565b60405180910390fd5b600060016000838152602001908152602001600020905060006002811115610e3d57610e3c611a98565b5b8160070160009054906101000a900460ff166002811115610e6157610e60611a98565b5b14610ea1576040517f08c379a0000000000000000000000000000000000000000000000000000000008152600401610e98906123e5565b60405180910390fd5b8060010160009054906101000a900473ffffffffffffffffffffffffffffffffffffffff1673ffffffffffffffffffffffffffffffffffffffff163373ffffffffffffffffffffffffffffffffffffffff1603610f33576040517f08c379a0000000000000000000000000000000000000000000000000000000008152600401610f2a90612451565b60405180910390fd5b80600301543414610f79576040517f08c379a0000000000000000000000000000000000000000000000000000000008152600401610f70906124bd565b60405180910390fd5b60018160070160006101000a81548160ff02191690836002811115610fa157610fa0611a98565b5b0217905550338160020160006101000a81548173ffffffffffffffffffffffffffffffffffffffff021916908373ffffffffffffffffffffffffffffffffffffffff16021790555042816008018190555060008160010160009054906101000a900473ffffffffffffffffffffffffffffffffffffffff1673ffffffffffffffffffffffffffffffffffffffff163460405161103c9061250e565b60006040518083038185875af1925050503d8060008114611079576040519150601f19603f3d011682016040523d82523d6000602084013e61107e565b606091505b50509050806110c2576040517f08c379a00000000000000000000000000000000000000000000000000000000081526004016110b990612595565b60405180910390fd5b60026000803373ffffffffffffffffffffffffffffffffffffffff1673ffffffffffffffffffffffffffffffffffffffff16815260200190815260200160002060010160008282546111149190611df4565b925050819055503373ffffffffffffffffffffffffffffffffffffffff16837fbd7ef6c6281278f6c8ac4ae9ef2f205b52425813c288dd47c377cb6b59c5076e34604051611162919061184e565b60405180910390a3505050565b600a81565b60006111c06000808473ffffffffffffffffffffffffffffffffffffffff1673ffffffffffffffffffffffffffffffffffffffff16815260200190815260200160002060010154611729565b9050919050565b60006020528060005260406000206000915090508060000160009054906101000a900460ff16908060010154908060020154908060030154905084565b6000803373ffffffffffffffffffffffffffffffffffffffff1673ffffffffffffffffffffffffffffffffffffffff16815260200190815260200160002060000160009054906101000a900460ff16611292576040517f08c379a000000000000000000000000000000000000000000000000000000000815260040161128990611c15565b60405180910390fd5b6000600160008381526020019081526020016000209050600160028111156112bd576112bc611a98565b5b8160070160009054906101000a900460ff1660028111156112e1576112e0611a98565b5b14611321576040517f08c379a000000000000000000000000000000000000000000000000000000000815260040161131890612601565b60405180910390fd5b8060010160009054906101000a900473ffffffffffffffffffffffffffffffffffffffff1673ffffffffffffffffffffffffffffffffffffffff163373ffffffffffffffffffffffffffffffffffffffff16146113b3576040517f08c379a00000000000000000000000000000000000000000000000000000000081526004016113aa90612693565b60405180910390fd5b806005015434146113f9576040517f08c379a00000000000000000000000000000000000000000000000000000000081526004016113f090612725565b60405180910390fd5b60028160070160006101000a81548160ff0219169083600281111561142157611420611a98565b5b021790555060008160020160009054906101000a900473ffffffffffffffffffffffffffffffffffffffff1673ffffffffffffffffffffffffffffffffffffffff16346040516114709061250e565b60006040518083038185875af1925050503d80600081146114ad576040519150601f19603f3d011682016040523d82523d6000602084013e6114b2565b606091505b50509050806114f6576040517f08c379a00000000000000000000000000000000000000000000000000000000081526004016114ed906127b7565b60405180910390fd5b600a6000803373ffffffffffffffffffffffffffffffffffffffff1673ffffffffffffffffffffffffffffffffffffffff16815260200190815260200160002060010160008282546115489190611df4565b9250508190555060016000803373ffffffffffffffffffffffffffffffffffffffff1673ffffffffffffffffffffffffffffffffffffffff16815260200190815260200160002060020160008282546115a19190611df4565b925050819055503373ffffffffffffffffffffffffffffffffffffffff16837f512d3e65b3e58c2187bb1872aa435dba5bd09c1c03823ba56ab70aac411e4a21346040516115ef919061184e565b60405180910390a3505050565b603281565b60016020528060005260406000206000915090508060000154908060010160009054906101000a900473ffffffffffffffffffffffffffffffffffffffff16908060020160009054906101000a900473ffffffffffffffffffffffffffffffffffffffff169080600301549080600401549080600501549080600601805461168890612026565b80601f01602080910402602001604051908101604052809291908181526020018280546116b490612026565b80156117015780601f106116d657610100808354040283529160200191611701565b820191906000526020600020905b8154815290600101906020018083116116e457829003601f168201915b5050505050908060070160009054906101000a900460ff16908060080154905089565b600281565b60006050821061173c57600c9050611752565b603c821061174d5760109050611752565b601490505b919050565b600080fd5b600080fd5b600073ffffffffffffffffffffffffffffffffffffffff82169050919050565b600061178c82611761565b9050919050565b61179c81611781565b81146117a757600080fd5b50565b6000813590506117b981611793565b92915050565b600080604083850312156117d6576117d5611757565b5b60006117e4858286016117aa565b92505060206117f5858286016117aa565b9150509250929050565b60008115159050919050565b611814816117ff565b82525050565b600060208201905061182f600083018461180b565b92915050565b6000819050919050565b61184881611835565b82525050565b6000602082019050611863600083018461183f565b92915050565b60006020828403121561187f5761187e611757565b5b600061188d848285016117aa565b91505092915050565b61189f81611835565b81146118aa57600080fd5b50565b6000813590506118bc81611896565b92915050565b600080fd5b600080fd5b600080fd5b60008083601f8401126118e7576118e66118c2565b5b8235905067ffffffffffffffff811115611904576119036118c7565b5b6020830191508360018202830111156119205761191f6118cc565b5b9250929050565b6000806000604084860312156119405761193f611757565b5b600061194e868287016118ad565b935050602084013567ffffffffffffffff81111561196f5761196e61175c565b5b61197b868287016118d1565b92509250509250925092565b60006020828403121561199d5761199c611757565b5b60006119ab848285016118ad565b91505092915050565b60006080820190506119c9600083018761180b565b6119d6602083018661183f565b6119e3604083018561183f565b6119f0606083018461183f565b95945050505050565b611a0281611781565b82525050565b600081519050919050565b600082825260208201905092915050565b60005b83811015611a42578082015181840152602081019050611a27565b60008484015250505050565b6000601f19601f8301169050919050565b6000611a6a82611a08565b611a748185611a13565b9350611a84818560208601611a24565b611a8d81611a4e565b840191505092915050565b7f4e487b7100000000000000000000000000000000000000000000000000000000600052602160045260246000fd5b60038110611ad857611ad7611a98565b5b50565b6000819050611ae982611ac7565b919050565b6000611af982611adb565b9050919050565b611b0981611aee565b82525050565b600061012082019050611b25600083018c61183f565b611b32602083018b6119f9565b611b3f604083018a6119f9565b611b4c606083018961183f565b611b59608083018861183f565b611b6660a083018761183f565b81810360c0830152611b788186611a5f565b9050611b8760e0830185611b00565b611b9561010083018461183f565b9a9950505050505050505050565b7f5472757374436861696e3a2063616c6c6572206e6f742072656769737465726560008201527f6400000000000000000000000000000000000000000000000000000000000000602082015250565b6000611bff602183611a13565b9150611c0a82611ba3565b604082019050919050565b60006020820190508181036000830152611c2e81611bf2565b9050919050565b7f5472757374436861696e3a20656e646f72736565206e6f74207265676973746560008201527f7265640000000000000000000000000000000000000000000000000000000000602082015250565b6000611c91602383611a13565b9150611c9c82611c35565b604082019050919050565b60006020820190508181036000830152611cc081611c84565b9050919050565b7f5472757374436861696e3a2063616e6e6f7420656e646f72736520796f75727360008201527f656c660000000000000000000000000000000000000000000000000000000000602082015250565b6000611d23602383611a13565b9150611d2e82611cc7565b604082019050919050565b60006020820190508181036000830152611d5281611d16565b9050919050565b7f5472757374436861696e3a20616c726561647920656e646f7273656400000000600082015250565b6000611d8f601c83611a13565b9150611d9a82611d59565b602082019050919050565b60006020820190508181036000830152611dbe81611d82565b9050919050565b7f4e487b7100000000000000000000000000000000000000000000000000000000600052601160045260246000fd5b6000611dff82611835565b9150611e0a83611835565b9250828201905080821115611e2257611e21611dc5565b5b92915050565b7f5472757374436861696e3a20616c726561647920726567697374657265640000600082015250565b6000611e5e601e83611a13565b9150611e6982611e28565b602082019050919050565b60006020820190508181036000830152611e8d81611e51565b9050919050565b7f5472757374436861696e3a207072696e636970616c206d757374206265203e2060008201527f3000000000000000000000000000000000000000000000000000000000000000602082015250565b6000611ef0602183611a13565b9150611efb82611e94565b604082019050919050565b60006020820190508181036000830152611f1f81611ee3565b9050919050565b6000611f3182611835565b9150611f3c83611835565b9250828202611f4a81611835565b91508282048414831517611f6157611f60611dc5565b5b5092915050565b7f4e487b7100000000000000000000000000000000000000000000000000000000600052601260045260246000fd5b6000611fa282611835565b9150611fad83611835565b925082611fbd57611fbc611f68565b5b828204905092915050565b7f4e487b7100000000000000000000000000000000000000000000000000000000600052604160045260246000fd5b7f4e487b7100000000000000000000000000000000000000000000000000000000600052602260045260246000fd5b6000600282049050600182168061203e57607f821691505b60208210810361205157612050611ff7565b5b50919050565b60008190508160005260206000209050919050565b60006020601f8301049050919050565b600082821b905092915050565b6000600883026120b97fffffffffffffffffffffffffffffffffffffffffffffffffffffffffffffffff8261207c565b6120c3868361207c565b95508019841693508086168417925050509392505050565b6000819050919050565b60006121006120fb6120f684611835565b6120db565b611835565b9050919050565b6000819050919050565b61211a836120e5565b61212e61212682612107565b848454612089565b825550505050565b600090565b612143612136565b61214e818484612111565b505050565b5b818110156121725761216760008261213b565b600181019050612154565b5050565b601f8211156121b75761218881612057565b6121918461206c565b810160208510156121a0578190505b6121b46121ac8561206c565b830182612153565b50505b505050565b600082821c905092915050565b60006121da600019846008026121bc565b1980831691505092915050565b60006121f383836121c9565b9150826002028217905092915050565b61220c82611a08565b67ffffffffffffffff81111561222557612224611fc8565b5b61222f8254612026565b61223a828285612176565b600060209050601f83116001811461226d576000841561225b578287015190505b61226585826121e7565b8655506122cd565b601f19841661227b86612057565b60005b828110156122a35784890151825560018201915060208501945060208101905061227e565b868310156122c057848901516122bc601f8916826121c9565b8355505b6001600288020188555050505b505050505050565b82818337600083830152505050565b60006122f08385611a13565b93506122fd8385846122d5565b61230683611a4e565b840190509392505050565b6000606082019050612326600083018761183f565b612333602083018661183f565b81810360408301526123468184866122e4565b905095945050505050565b600061235c82611835565b91507fffffffffffffffffffffffffffffffffffffffffffffffffffffffffffffffff820361238e5761238d611dc5565b5b600182019050919050565b7f5472757374436861696e3a206c6f616e206e6f7420617661696c61626c650000600082015250565b60006123cf601e83611a13565b91506123da82612399565b602082019050919050565b600060208201905081810360008301526123fe816123c2565b9050919050565b7f5472757374436861696e3a2063616e6e6f742066756e64206f776e206c6f616e600082015250565b600061243b602083611a13565b915061244682612405565b602082019050919050565b6000602082019050818103600083015261246a8161242e565b9050919050565b7f5472757374436861696e3a2073656e64206578616374207072696e636970616c600082015250565b60006124a7602083611a13565b91506124b282612471565b602082019050919050565b600060208201905081810360008301526124d68161249a565b9050919050565b600081905092915050565b50565b60006124f86000836124dd565b9150612503826124e8565b600082019050919050565b6000612519826124eb565b9150819050919050565b7f5472757374436861696e3a207472616e7366657220746f20626f72726f77657260008201527f206661696c656400000000000000000000000000000000000000000000000000602082015250565b600061257f602783611a13565b915061258a82612523565b604082019050919050565b600060208201905081810360008301526125ae81612572565b9050919050565b7f5472757374436861696e3a206c6f616e206e6f74206163746976650000000000600082015250565b60006125eb601b83611a13565b91506125f6826125b5565b602082019050919050565b6000602082019050818103600083015261261a816125de565b9050919050565b7f5472757374436861696e3a206f6e6c7920626f72726f7765722063616e20726560008201527f7061790000000000000000000000000000000000000000000000000000000000602082015250565b600061267d602383611a13565b915061268882612621565b604082019050919050565b600060208201905081810360008301526126ac81612670565b9050919050565b7f5472757374436861696e3a206d7573742073656e6420657861637420616d6f7560008201527f6e74206f77656400000000000000000000000000000000000000000000000000602082015250565b600061270f602783611a13565b915061271a826126b3565b604082019050919050565b6000602082019050818103600083015261273e81612702565b9050919050565b7f5472757374436861696e3a207472616e7366657220746f2066756e646572206660008201527f61696c6564000000000000000000000000000000000000000000000000000000602082015250565b60006127a1602583611a13565b91506127ac82612745565b604082019050919050565b600060208201905081810360008301526127d081612794565b905091905056fea26469706673582212202eb9494e76f4d8525364cee6e5e082f9b68f14c26983c49dd040cd216910086064736f6c63430008180033",
  "linkReferences": {},
  "deployedLinkReferences": {}
}