{
  "_format": "hh-sol-artifact-1",
  "contractName": "TrustChain",
  "sourceName": "contracts/TrustChain.sol",
  "abi": [
    {
      "anonymous": false,
      "inputs": [
        {
          "indexed": true,
          "internalType": "uint256",
          "name": "loanId",
          "type": "uint256"
        },
        {
          "indexed": true,
          "internalType": "address",
          "name": "funder",
          "type": "address"
        },
        {
          "indexed": false,
          "internalType": "uint256",
          "name": "amount",
          "type": "uint256"
        }
      ],
      "name": "LoanFunded",
      "type": "event"
    },
    {
      "anonymous": false,
      "inputs": [
        {
          "indexed": true,
          "internalType": "uint256",
          "name": "loanId",
          "type": "uint256"
        },
        {
          "indexed": true,
          "internalType": "address",
          "name": "borrower",
          "type": "address"
        },
        {
          "indexed": false,
          "internalType": "uint256",
          "name": "amount",
          "type": "uint256"
        },
        {
          "indexed": false,
          "internalType": "string",
          "name": "purpose",
          "type": "string"
        }
      ],
      "name": "LoanRequested",
      "type": "event"
    },
    {
      "anonymous": false,
      "inputs": [
        {
          "indexed": true,
          "internalType": "address",
          "name": "user",
          "type": "address"
        },
        {
          "indexed": false,
          "internalType": "uint256",
          "name": "initialTrustScore",
          "type": "uint256"
        }
      ],
      "name": "UserRegistered",
      "type": "event"
    },
    {
      "inputs": [
        {
          "internalType": "uint256",
          "name": "_loanId",
          "type": "uint256"
        }
      ],
      "name": "fundLoan",
      "outputs": [],
      "stateMutability": "payable",
      "type": "function"
    },
    {
      "inputs": [],
      "name": "getLoanCount",
      "outputs": [
        {
          "internalType": "uint256",
          "name": "",
          "type": "uint256"
        }
      ],
      "stateMutability": "view",
      "type": "function"
    },
    {
      "inputs": [],
      "name": "loanCounter",
      "outputs": [
        {
          "internalType": "uint256",
          "name": "",
          "type": "uint256"
        }
      ],
      "stateMutability": "view",
      "type": "function"
    },
    {
      "inputs": [
        {
          "internalType": "uint256",
          "name": "",
          "type": "uint256"
        }
      ],
      "name": "loans",
      "outputs": [
        {
          "internalType": "uint256",
          "name": "id",
          "type": "uint256"
        },
        {
          "internalType": "address",
          "name": "borrower",
          "type": "address"
        },
        {
          "internalType": "uint256",
          "name": "amount",
          "type": "uint256"
        },
        {
          "internalType": "string",
          "name": "purpose",
          "type": "string"
        },
        {
          "internalType": "enum TrustChain.LoanStatus",
          "name": "status",
          "type": "uint8"
        },
        {
          "internalType": "address",
          "name": "funder",
          "type": "address"
        }
      ],
      "stateMutability": "view",
      "type": "function"
    },
    {
      "inputs": [
        {
          "internalType": "uint256",
          "name": "_initialTrustScore",
          "type": "uint256"
        }
      ],
      "name": "registerUser",
      "outputs": [],
      "stateMutability": "nonpayable",
      "type": "function"
    },
    {
      "inputs": [
        {
          "internalType": "uint256",
          "name": "_amount",
          "type": "uint256"
        },
        {
          "internalType": "string",
          "name": "_purpose",
          "type": "string"
        }
      ],
      "name": "requestLoan",
      "outputs": [],
      "stateMutability": "nonpayable",
      "type": "function"
    },
    {
      "inputs": [
        {
          "internalType": "address",
          "name": "",
          "type": "address"
        }
      ],
      "name": "users",
      "outputs": [
        {
          "internalType": "bool",
          "name": "isRegistered",
          "type": "bool"
        },
        {
          "internalType": "uint256",
          "name": "trustScore",
          "type": "uint256"
        }
      ],
      "stateMutability": "view",
      "type": "function"
    }
  ],
  "bytecode": "0x608060405234801561001057600080fd5b506115dd806100206000396000f3fe6080604052600436106100705760003560e01c80636c79e1671161004e5780636c79e167146100f4578063846b909a1461011d578063a87430ba14610139578063e1ec3c681461017757610070565b80631bbfae0e1461007557806334d9289e1461009e57806352196812146100c9575b600080fd5b34801561008157600080fd5b5061009c60048036038101906100979190610ae5565b6101b9565b005b3480156100aa57600080fd5b506100b361031c565b6040516100c09190610b21565b60405180910390f35b3480156100d557600080fd5b506100de610322565b6040516100eb9190610b21565b60405180910390f35b34801561010057600080fd5b5061011b60048036038101906101169190610c82565b61032c565b005b61013760048036038101906101329190610ae5565b6105dd565b005b34801561014557600080fd5b50610160600480360381019061015b9190610d3c565b610959565b60405161016e929190610d84565b60405180910390f35b34801561018357600080fd5b5061019e60048036038101906101999190610ae5565b61098a565b6040516101b096959493929190610eb2565b60405180910390f35b6000803373ffffffffffffffffffffffffffffffffffffffff1673ffffffffffffffffffffffffffffffffffffffff16815260200190815260200160002060000160009054906101000a900460ff1615610248576040517f08c379a000000000000000000000000000000000000000000000000000000000815260040161023f90610f66565b60405180910390fd5b6040518060400160405280600115158152602001828152506000803373ffffffffffffffffffffffffffffffffffffffff1673ffffffffffffffffffffffffffffffffffffffff16815260200190815260200160002060008201518160000160006101000a81548160ff021916908315150217905550602082015181600101559050503373ffffffffffffffffffffffffffffffffffffffff167fe29d35093005f4d575e1003753426b57a7f64378ba73332eef9c6ccc2b8decd6826040516103119190610b21565b60405180910390a250565b60025481565b6000600254905090565b6000803373ffffffffffffffffffffffffffffffffffffffff1673ffffffffffffffffffffffffffffffffffffffff16815260200190815260200160002060000160009054906101000a900460ff166103ba576040517f08c379a00000000000000000000000000000000000000000000000000000000081526004016103b190610fd2565b60405180910390fd5b600082116103fd576040517f08c379a00000000000000000000000000000000000000000000000000000000081526004016103f49061103e565b60405180910390fd5b600060025490506040518060c001604052808281526020013373ffffffffffffffffffffffffffffffffffffffff1681526020018481526020018381526020016000600281111561045157610450610e3b565b5b8152602001600073ffffffffffffffffffffffffffffffffffffffff16815250600160008381526020019081526020016000206000820151816000015560208201518160010160006101000a81548173ffffffffffffffffffffffffffffffffffffffff021916908373ffffffffffffffffffffffffffffffffffffffff1602179055506040820151816002015560608201518160030190816104f4919061126a565b5060808201518160040160006101000a81548160ff021916908360028111156105205761051f610e3b565b5b021790555060a08201518160040160016101000a81548173ffffffffffffffffffffffffffffffffffffffff021916908373ffffffffffffffffffffffffffffffffffffffff160217905550905050600260008154809291906105829061136b565b91905055503373ffffffffffffffffffffffffffffffffffffffff16817ffbba0893dd1f941cb4a7bb791aed3ce1ad2a008c20ef3254b2a2cf7752b199f185856040516105d09291906113b3565b60405180910390a3505050565b6000803373ffffffffffffffffffffffffffffffffffffffff1673ffffffffffffffffffffffffffffffffffffffff16815260200190815260200160002060000160009054906101000a900460ff1661066b576040517f08c379a000000000000000000000000000000000000000000000000000000000815260040161066290610fd2565b60405180910390fd5b60006001600083815260200190815260200160002090506000600281111561069657610695610e3b565b5b8160040160009054906101000a900460ff1660028111156106ba576106b9610e3b565b5b146106fa576040517f08c379a00000000000000000000000000000000000000000000000000000000081526004016106f190611455565b60405180910390fd5b80600201543414610740576040517f08c379a0000000000000000000000000000000000000000000000000000000008152600401610737906114c1565b60405180910390fd5b8060010160009054906101000a900473ffffffffffffffffffffffffffffffffffffffff1673ffffffffffffffffffffffffffffffffffffffff163373ffffffffffffffffffffffffffffffffffffffff16036107d2576040517f08c379a00000000000000000000000000000000000000000000000000000000081526004016107c990611553565b60405180910390fd5b60018160040160006101000a81548160ff021916908360028111156107fa576107f9610e3b565b5b0217905550338160040160016101000a81548173ffffffffffffffffffffffffffffffffffffffff021916908373ffffffffffffffffffffffffffffffffffffffff1602179055508060010160009054906101000a900473ffffffffffffffffffffffffffffffffffffffff1673ffffffffffffffffffffffffffffffffffffffff166108fc349081150290604051600060405180830381858888f193505050501580156108ac573d6000803e3d6000fd5b5060026000803373ffffffffffffffffffffffffffffffffffffffff1673ffffffffffffffffffffffffffffffffffffffff16815260200190815260200160002060010160008282546108ff9190611573565b925050819055503373ffffffffffffffffffffffffffffffffffffffff16827fbd7ef6c6281278f6c8ac4ae9ef2f205b52425813c288dd47c377cb6b59c5076e3460405161094d9190610b21565b60405180910390a35050565b60006020528060005260406000206000915090508060000160009054906101000a900460ff16908060010154905082565b60016020528060005260406000206000915090508060000154908060010160009054906101000a900473ffffffffffffffffffffffffffffffffffffffff16908060020154908060030180546109df9061108d565b80601f0160208091040260200160405190810160405280929190818152602001828054610a0b9061108d565b8015610a585780601f10610a2d57610100808354040283529160200191610a58565b820191906000526020600020905b815481529060010190602001808311610a3b57829003601f168201915b5050505050908060040160009054906101000a900460ff16908060040160019054906101000a900473ffffffffffffffffffffffffffffffffffffffff16905086565b6000604051905090565b600080fd5b600080fd5b6000819050919050565b610ac281610aaf565b8114610acd57600080fd5b50565b600081359050610adf81610ab9565b92915050565b600060208284031215610afb57610afa610aa5565b5b6000610b0984828501610ad0565b91505092915050565b610b1b81610aaf565b82525050565b6000602082019050610b366000830184610b12565b92915050565b600080fd5b600080fd5b6000601f19601f8301169050919050565b7f4e487b7100000000000000000000000000000000000000000000000000000000600052604160045260246000fd5b610b8f82610b46565b810181811067ffffffffffffffff82111715610bae57610bad610b57565b5b80604052505050565b6000610bc1610a9b565b9050610bcd8282610b86565b919050565b600067ffffffffffffffff821115610bed57610bec610b57565b5b610bf682610b46565b9050602081019050919050565b82818337600083830152505050565b6000610c25610c2084610bd2565b610bb7565b905082815260208101848484011115610c4157610c40610b41565b5b610c4c848285610c03565b509392505050565b600082601f830112610c6957610c68610b3c565b5b8135610c79848260208601610c12565b91505092915050565b60008060408385031215610c9957610c98610aa5565b5b6000610ca785828601610ad0565b925050602083013567ffffffffffffffff811115610cc857610cc7610aaa565b5b610cd485828601610c54565b9150509250929050565b600073ffffffffffffffffffffffffffffffffffffffff82169050919050565b6000610d0982610cde565b9050919050565b610d1981610cfe565b8114610d2457600080fd5b50565b600081359050610d3681610d10565b92915050565b600060208284031215610d5257610d51610aa5565b5b6000610d6084828501610d27565b91505092915050565b60008115159050919050565b610d7e81610d69565b82525050565b6000604082019050610d996000830185610d75565b610da66020830184610b12565b9392505050565b610db681610cfe565b82525050565b600081519050919050565b600082825260208201905092915050565b60005b83811015610df6578082015181840152602081019050610ddb565b60008484015250505050565b6000610e0d82610dbc565b610e178185610dc7565b9350610e27818560208601610dd8565b610e3081610b46565b840191505092915050565b7f4e487b7100000000000000000000000000000000000000000000000000000000600052602160045260246000fd5b60038110610e7b57610e7a610e3b565b5b50565b6000819050610e8c82610e6a565b919050565b6000610e9c82610e7e565b9050919050565b610eac81610e91565b82525050565b600060c082019050610ec76000830189610b12565b610ed46020830188610dad565b610ee16040830187610b12565b8181036060830152610ef38186610e02565b9050610f026080830185610ea3565b610f0f60a0830184610dad565b979650505050505050565b7f5573657220616c72656164792072656769737465726564000000000000000000600082015250565b6000610f50601783610dc7565b9150610f5b82610f1a565b602082019050919050565b60006020820190508181036000830152610f7f81610f43565b9050919050565b7f55736572206e6f74207265676973746572656400000000000000000000000000600082015250565b6000610fbc601383610dc7565b9150610fc782610f86565b602082019050919050565b60006020820190508181036000830152610feb81610faf565b9050919050565b7f416d6f756e74206d7573742062652067726561746572207468616e2030000000600082015250565b6000611028601d83610dc7565b915061103382610ff2565b602082019050919050565b600060208201905081810360008301526110578161101b565b9050919050565b7f4e487b7100000000000000000000000000000000000000000000000000000000600052602260045260246000fd5b600060028204905060018216806110a557607f821691505b6020821081036110b8576110b761105e565b5b50919050565b60008190508160005260206000209050919050565b60006020601f8301049050919050565b600082821b905092915050565b6000600883026111207fffffffffffffffffffffffffffffffffffffffffffffffffffffffffffffffff826110e3565b61112a86836110e3565b95508019841693508086168417925050509392505050565b6000819050919050565b600061116761116261115d84610aaf565b611142565b610aaf565b9050919050565b6000819050919050565b6111818361114c565b61119561118d8261116e565b8484546110f0565b825550505050565b600090565b6111aa61119d565b6111b5818484611178565b505050565b5b818110156111d9576111ce6000826111a2565b6001810190506111bb565b5050565b601f82111561121e576111ef816110be565b6111f8846110d3565b81016020851015611207578190505b61121b611213856110d3565b8301826111ba565b50505b505050565b600082821c905092915050565b600061124160001984600802611223565b1980831691505092915050565b600061125a8383611230565b9150826002028217905092915050565b61127382610dbc565b67ffffffffffffffff81111561128c5761128b610b57565b5b611296825461108d565b6112a18282856111dd565b600060209050601f8311600181146112d457600084156112c2578287015190505b6112cc858261124e565b865550611334565b601f1984166112e2866110be565b60005b8281101561130a578489015182556001820191506020850194506020810190506112e5565b868310156113275784890151611323601f891682611230565b8355505b6001600288020188555050505b505050505050565b7f4e487b7100000000000000000000000000000000000000000000000000000000600052601160045260246000fd5b600061137682610aaf565b91507fffffffffffffffffffffffffffffffffffffffffffffffffffffffffffffffff82036113a8576113a761133c565b5b600182019050919050565b60006040820190506113c86000830185610b12565b81810360208301526113da8184610e02565b90509392505050565b7f4c6f616e206973206e6f7420617661696c61626c6520666f722066756e64696e60008201527f6700000000000000000000000000000000000000000000000000000000000000602082015250565b600061143f602183610dc7565b915061144a826113e3565b604082019050919050565b6000602082019050818103600083015261146e81611432565b9050919050565b7f4d7573742073656e64206578616374206c6f616e20616d6f756e740000000000600082015250565b60006114ab601b83610dc7565b91506114b682611475565b602082019050919050565b600060208201905081810360008301526114da8161149e565b9050919050565b7f426f72726f776572732063616e6e6f742066756e64207468656972206f776e2060008201527f6c6f616e73000000000000000000000000000000000000000000000000000000602082015250565b600061153d602583610dc7565b9150611548826114e1565b604082019050919050565b6000602082019050818103600083015261156c81611530565b9050919050565b600061157e82610aaf565b915061158983610aaf565b92508282019050808211156115a1576115a061133c565b5b9291505056fea264697066735822122022e5d7b880731e4fb8a2d0ec1a2d907ab418ab6f32c8c90b88b811d84f78419f64736f6c63430008180033",
  "linkReferences": {},
  "deployedLinkReferences": {}
}