{
  "_format": "hh-sol-artifact-1",
  "contractName": "TrustChain",
  "sourceName": "contracts/TrustChain.sol",
  "abi": [
    {
      "anonymous": false,
      "inputs": [
        {
          "indexed": true,
          "internalType": "uint256",
          "name": "loanId",
          "type": "uint256"
        },
        {
          "indexed": true,
          "internalType": "address",
          "name": "lender",
          "type": "address"
        },
        {
          "indexed": false,
          "internalType": "uint256",
          "name": "timestamp",
          "type": "uint256"
        }
      ],
      "name": "AgreementProposed",
      "type": "event"
    },
    {
      "anonymous": false,
      "inputs": [
        {
          "indexed": true,
          "internalType": "uint256",
          "name": "loanId",
          "type": "uint256"
        },
        {
          "indexed": true,
          "internalType": "address",
          "name": "signer",
          "type": "address"
        },
        {
          "indexed": false,
          "internalType": "string",
          "name": "role",
          "type": "string"
        },
        {
          "indexed": false,
          "internalType": "uint256",
          "name": "timestamp",
          "type": "uint256"
        }
      ],
      "name": "AgreementSigned",
      "type": "event"
    },
    {
      "anonymous": false,
      "inputs": [
        {
          "indexed": true,
          "internalType": "uint256",
          "name": "loanId",
          "type": "uint256"
        },
        {
          "indexed": true,
          "internalType": "address",
          "name": "funder",
          "type": "address"
        },
        {
          "indexed": false,
          "internalType": "uint256",
          "name": "principal",
          "type": "uint256"
        }
      ],
      "name": "LoanFunded",
      "type": "event"
    },
    {
      "anonymous": false,
      "inputs": [
        {
          "indexed": true,
          "internalType": "uint256",
          "name": "loanId",
          "type": "uint256"
        },
        {
          "indexed": true,
          "internalType": "address",
          "name": "borrower",
          "type": "address"
        },
        {
          "indexed": false,
          "internalType": "uint256",
          "name": "totalRepaid",
          "type": "uint256"
        }
      ],
      "name": "LoanRepaid",
      "type": "event"
    },
    {
      "anonymous": false,
      "inputs": [
        {
          "indexed": true,
          "internalType": "uint256",
          "name": "loanId",
          "type": "uint256"
        },
        {
          "indexed": true,
          "internalType": "address",
          "name": "borrower",
          "type": "address"
        },
        {
          "indexed": false,
          "internalType": "uint256",
          "name": "principal",
          "type": "uint256"
        },
        {
          "indexed": false,
          "internalType": "uint256",
          "name": "interestRate",
          "type": "uint256"
        },
        {
          "indexed": false,
          "internalType": "string",
          "name": "purpose",
          "type": "string"
        }
      ],
      "name": "LoanRequested",
      "type": "event"
    },
    {
      "anonymous": false,
      "inputs": [
        {
          "indexed": true,
          "internalType": "address",
          "name": "endorser",
          "type": "address"
        },
        {
          "indexed": true,
          "internalType": "address",
          "name": "endorsee",
          "type": "address"
        },
        {
          "indexed": false,
          "internalType": "uint256",
          "name": "newScore",
          "type": "uint256"
        }
      ],
      "name": "UserEndorsed",
      "type": "event"
    },
    {
      "anonymous": false,
      "inputs": [
        {
          "indexed": true,
          "internalType": "address",
          "name": "user",
          "type": "address"
        },
        {
          "indexed": false,
          "internalType": "uint256",
          "name": "initialScore",
          "type": "uint256"
        }
      ],
      "name": "UserRegistered",
      "type": "event"
    },
    {
      "inputs": [],
      "name": "BASE_TRUST_SCORE",
      "outputs": [
        {
          "internalType": "uint256",
          "name": "",
          "type": "uint256"
        }
      ],
      "stateMutability": "view",
      "type": "function"
    },
    {
      "inputs": [],
      "name": "ENDORSE_SCORE_REWARD",
      "outputs": [
        {
          "internalType": "uint256",
          "name": "",
          "type": "uint256"
        }
      ],
      "stateMutability": "view",
      "type": "function"
    },
    {
      "inputs": [],
      "name": "FUND_SCORE_REWARD",
      "outputs": [
        {
          "internalType": "uint256",
          "name": "",
          "type": "uint256"
        }
      ],
      "stateMutability": "view",
      "type": "function"
    },
    {
      "inputs": [],
      "name": "REPAY_SCORE_REWARD",
      "outputs": [
        {
          "internalType": "uint256",
          "name": "",
          "type": "uint256"
        }
      ],
      "stateMutability": "view",
      "type": "function"
    },
    {
      "inputs": [
        {
          "internalType": "address",
          "name": "_user",
          "type": "address"
        }
      ],
      "name": "computeInterestRate",
      "outputs": [
        {
          "internalType": "uint256",
          "name": "",
          "type": "uint256"
        }
      ],
      "stateMutability": "view",
      "type": "function"
    },
    {
      "inputs": [
        {
          "internalType": "address",
          "name": "_endorsee",
          "type": "address"
        }
      ],
      "name": "endorseUser",
      "outputs": [],
      "stateMutability": "nonpayable",
      "type": "function"
    },
    {
      "inputs": [
        {
          "internalType": "uint256",
          "name": "_loanId",
          "type": "uint256"
        }
      ],
      "name": "fundLoan",
      "outputs": [],
      "stateMutability": "payable",
      "type": "function"
    },
    {
      "inputs": [
        {
          "internalType": "uint256",
          "name": "_loanId",
          "type": "uint256"
        }
      ],
      "name": "getAgreementStatus",
      "outputs": [
        {
          "internalType": "bool",
          "name": "lenderSigned",
          "type": "bool"
        },
        {
          "internalType": "bool",
          "name": "borrowerSigned",
          "type": "bool"
        },
        {
          "internalType": "address",
          "name": "proposedFunder",
          "type": "address"
        },
        {
          "internalType": "bool",
          "name": "bothSigned",
          "type": "bool"
        }
      ],
      "stateMutability": "view",
      "type": "function"
    },
    {
      "inputs": [],
      "name": "getLoanCount",
      "outputs": [
        {
          "internalType": "uint256",
          "name": "",
          "type": "uint256"
        }
      ],
      "stateMutability": "view",
      "type": "function"
    },
    {
      "inputs": [
        {
          "internalType": "address",
          "name": "_user",
          "type": "address"
        }
      ],
      "name": "getTrustScore",
      "outputs": [
        {
          "internalType": "uint256",
          "name": "",
          "type": "uint256"
        }
      ],
      "stateMutability": "view",
      "type": "function"
    },
    {
      "inputs": [
        {
          "internalType": "address",
          "name": "",
          "type": "address"
        },
        {
          "internalType": "address",
          "name": "",
          "type": "address"
        }
      ],
      "name": "hasEndorsed",
      "outputs": [
        {
          "internalType": "bool",
          "name": "",
          "type": "bool"
        }
      ],
      "stateMutability": "view",
      "type": "function"
    },
    {
      "inputs": [],
      "name": "loanCounter",
      "outputs": [
        {
          "internalType": "uint256",
          "name": "",
          "type": "uint256"
        }
      ],
      "stateMutability": "view",
      "type": "function"
    },
    {
      "inputs": [
        {
          "internalType": "uint256",
          "name": "",
          "type": "uint256"
        }
      ],
      "name": "loans",
      "outputs": [
        {
          "internalType": "uint256",
          "name": "id",
          "type": "uint256"
        },
        {
          "internalType": "address",
          "name": "borrower",
          "type": "address"
        },
        {
          "internalType": "address",
          "name": "funder",
          "type": "address"
        },
        {
          "internalType": "uint256",
          "name": "principal",
          "type": "uint256"
        },
        {
          "internalType": "uint256",
          "name": "interestRate",
          "type": "uint256"
        },
        {
          "internalType": "uint256",
          "name": "totalOwed",
          "type": "uint256"
        },
        {
          "internalType": "string",
          "name": "purpose",
          "type": "string"
        },
        {
          "internalType": "enum TrustChain.LoanStatus",
          "name": "status",
          "type": "uint8"
        },
        {
          "internalType": "uint256",
          "name": "fundedAt",
          "type": "uint256"
        },
        {
          "internalType": "bool",
          "name": "lenderSigned",
          "type": "bool"
        },
        {
          "internalType": "bool",
          "name": "borrowerSigned",
          "type": "bool"
        },
        {
          "internalType": "uint256",
          "name": "lenderSignedAt",
          "type": "uint256"
        },
        {
          "internalType": "uint256",
          "name": "borrowerSignedAt",
          "type": "uint256"
        },
        {
          "internalType": "address",
          "name": "proposedFunder",
          "type": "address"
        }
      ],
      "stateMutability": "view",
      "type": "function"
    },
    {
      "inputs": [],
      "name": "registerUser",
      "outputs": [],
      "stateMutability": "nonpayable",
      "type": "function"
    },
    {
      "inputs": [
        {
          "internalType": "uint256",
          "name": "_loanId",
          "type": "uint256"
        }
      ],
      "name": "repayLoan",
      "outputs": [],
      "stateMutability": "payable",
      "type": "function"
    },
    {
      "inputs": [
        {
          "internalType": "uint256",
          "name": "_principal",
          "type": "uint256"
        },
        {
          "internalType": "string",
          "name": "_purpose",
          "type": "string"
        }
      ],
      "name": "requestLoan",
      "outputs": [],
      "stateMutability": "nonpayable",
      "type": "function"
    },
    {
      "inputs": [
        {
          "internalType": "uint256",
          "name": "_loanId",
          "type": "uint256"
        }
      ],
      "name": "signAgreementAsBorrower",
      "outputs": [],
      "stateMutability": "nonpayable",
      "type": "function"
    },
    {
      "inputs": [
        {
          "internalType": "uint256",
          "name": "_loanId",
          "type": "uint256"
        }
      ],
      "name": "signAgreementAsLender",
      "outputs": [],
      "stateMutability": "nonpayable",
      "type": "function"
    },
    {
      "inputs": [
        {
          "internalType": "address",
          "name": "",
          "type": "address"
        }
      ],
      "name": "users",
      "outputs": [
        {
          "internalType": "bool",
          "name": "isRegistered",
          "type": "bool"
        },
        {
          "internalType": "uint256",
          "name": "trustScore",
          "type": "uint256"
        },
        {
          "internalType": "uint256",
          "name": "loansRepaid",
          "type": "uint256"
        },
        {
          "internalType": "uint256",
          "name": "loansDefaulted",
          "type": "uint256"
        }
      ],
      "stateMutability": "view",
      "type": "function"
    }
  ],
  "bytecode": "0x6080806040523461001657611744908161001c8239f35b600080fdfe6080604052600436101561001257600080fd5b60003560e01c80631e75dc87146113b25780631edd910d1461135857806323d58c73146112e957806328ebd87e146112cd57806334d9289e14610fc757806339a811ee146110f35780634d3820eb14610fe55780635219681214610fc75780635e09eea114610f8a5780636c79e16714610ae7578063846b909a146107d9578063870fb6ce1461062157806391612a3214610605578063a3fccc02146105c0578063a87430ba1461055f578063ab7b1c8914610304578063ccb86874146102e8578063e1ec3c681461010e5763efaea56f146100ed57600080fd5b3461010957600036600319011261010957602060405160028152f35b600080fd5b3461010957602036600319011261010957600435600052600160205260206040600020805460018060a01b036001830154169060018060a01b03600284015416916003840154936004810154936005820154604051600081600686015491610175836115a3565b80835292600181169081156102cb575060011461028b575b610199925003826115dd565b60ff60078501541691600885015497600986015499600a87015495600b88015497600c60018060a01b0391015416986040519d8e6101c09c8152015260408d015260608c015260808b015260a08a01528560c08a0152805180968a015260005b8681106102745750506101e096600088878b010152600382101561025e57889660ff9260e0890152610100880152818116151561012088015260081c1615156101408601526101608501526101808401526101a0830152601f80199101168101030190f35b634e487b7160e01b600052602160045260246000fd5b8060208092840101516101e0828d010152016101f9565b5090600686016000528a600020906000915b8183106102b4575050908a6101999282010161018d565b80548584018e0152849350918c019160010161029d565b60ff1916838e01525061019992151560051b82018c01905061018d565b3461010957600036600319011261010957602060405160328152f35b60208060031936011261010957600435336000526000825261032d60ff604060002054166115ff565b806000526001825260406000206007810180549060ff8216600381101561025e5760010361051a5760018301546001600160a01b039290831633036104c9576005840154340361047457600093849384936002859460ff1916179055600234920154165af161039a6116bd565b50156104215733600052600082526001604060002001805490600a820180921161040b5755336000526000825260026040600020018054906001820180921161040b57557f512d3e65b3e58c2187bb1872aa435dba5bd09c1c03823ba56ab70aac411e4a21604051923484523393a3005b634e487b7160e01b600052601160045260246000fd5b60405162461bcd60e51b815260048101839052602560248201527f5472757374436861696e3a207472616e7366657220746f2066756e6465722066604482015264185a5b195960da1b6064820152608490fd5b60405162461bcd60e51b815260048101879052602760248201527f5472757374436861696e3a206d7573742073656e6420657861637420616d6f756044820152661b9d081bddd95960ca1b6064820152608490fd5b60405162461bcd60e51b815260048101879052602360248201527f5472757374436861696e3a206f6e6c7920626f72726f7765722063616e20726560448201526270617960e81b6064820152608490fd5b60405162461bcd60e51b815260048101869052601b60248201527f5472757374436861696e3a206c6f616e206e6f742061637469766500000000006044820152606490fd5b34610109576020366003190112610109576001600160a01b0361058061158d565b1660005260006020526080604060002060ff8154169060018101549060036002820154910154916040519315158452602084015260408301526060820152f35b34610109576020366003190112610109576001600160a01b036105e161158d565b16600052600060205260206105fd6001604060002001546116ed565b604051908152f35b34610109576000366003190112610109576020604051600a8152f35b346101095760208060031936011261010957600435336000526000825261064f60ff604060002054166115ff565b8060005260018252604060002060ff600782015416600381101561025e576106779015611655565b60018101546001600160a01b031633146107865760098101805460ff811661073757906001600c939260ff191617905542600a82015501336001600160601b0360a01b825416179055604051428152817f78d419be3e130f144d8704456d8ace4be8e9ba996dcf738efa190dc5406a9eb5843393a3604051916040835260066040840152653632b73232b960d11b606084015242908301527f6c56c94f2da7531e3fa2d7263d4f2e091ab52db1d545c0083231fe73e2d35de160803393a3005b60405162461bcd60e51b815260048101869052602160248201527f5472757374436861696e3a206c656e64657220616c7265616479207369676e656044820152601960fa1b6064820152608490fd5b60405162461bcd60e51b815260048101849052602560248201527f5472757374436861696e3a20626f72726f7765722063616e6e6f74206265206c60448201526432b73232b960d91b6064820152608490fd5b60208060031936011261010957600435336000526000825261080260ff604060002054166115ff565b80600052600182526040600020600781019081549160ff8316600381101561025e57610aa25760018201546001600160a01b039081169390338514610a5f57600c840154163303610a0357600383015434036109c057600983015460ff811690816109b2575b501561094e5760ff191660011790556002810180546001600160a01b031916331790554260089091015560009081908190819034905af16108a76116bd565b50156108f957336000526000825260016040600020018054906002820180921161040b57557fbd7ef6c6281278f6c8ac4ae9ef2f205b52425813c288dd47c377cb6b59c5076e604051923484523393a3005b60405162461bcd60e51b815260048101839052602760248201527f5472757374436861696e3a207472616e7366657220746f20626f72726f7765726044820152660819985a5b195960ca1b6064820152608490fd5b60405162461bcd60e51b815260048101879052603660248201527f5472757374436861696e3a2061677265656d656e74206e6f742066756c6c79206044820152757369676e656420627920626f7468207061727469657360501b6064820152608490fd5b60ff915060081c1687610868565b6064866040519062461bcd60e51b825280600483015260248201527f5472757374436861696e3a2073656e64206578616374207072696e636970616c6044820152fd5b60405162461bcd60e51b815260048101879052602e60248201527f5472757374436861696e3a206f6e6c79207468652070726f706f73696e67206c60448201526d195b99195c8818d85b88199d5b9960921b6064820152608490fd5b6064876040519062461bcd60e51b825280600483015260248201527f5472757374436861696e3a2063616e6e6f742066756e64206f776e206c6f616e6044820152fd5b60405162461bcd60e51b815260048101869052601e60248201527f5472757374436861696e3a206c6f616e206e6f7420617661696c61626c6500006044820152606490fd5b346101095760403660031901126101095760243567ffffffffffffffff811161010957366023820112156101095767ffffffffffffffff8160040135116101095736602482600401358301011161010957336000526000602052610b5260ff604060002054166115ff565b60043515610f3b57336000526000602052610b746001604060002001546116ed565b908160043502916004358304810361040b5760648304600435016004351161040b57600354604051936101c085019085821067ffffffffffffffff831117610f2557606491604052828652336020870152600060408701526004356060870152836080870152046004350160a0850152610bf183600401356116a1565b610bfe60405191826115dd565b60048401358082526024850160208301376000602085600401358301015260c0850152600060e08501526000610100850152600061012085015260006101408501526000610160850152600061018085015260006101a085015260005260016020526040600020928051845560018060a01b036020820151166001600160601b0360a01b6001860154161760018501556002840160018060a01b036040830151166001600160601b0360a01b825416179055606081015160038501556080810151600485015560a0810151600585015560c081015180519067ffffffffffffffff8211610f25578190610cf460068801546115a3565b601f8111610ed2575b50602090601f8311600114610e6057600092610e55575b50508160011b916000199060031b1c19161760068501555b60e08101516007850194600382101561025e577f7b6ba427d6069eeb2637d7d2bb04f521157dd7df5da9e39b8bf1a2e7100c1b0395600c9260ff80198354169116179055610100830151600882015560098101610d9c6101208501511515829060ff801983541691151516179055565b610140840151151561ff0082549160081b169061ff001916179055610160830151600a820155610180830151600b82015501906101a060018060a01b03910151166001600160601b0360a01b825416179055600354928391604051906004358252602082015260606040820152836004013560608201528360040135602485016080830137600060808560040135830101526080813395601f8019916004013501168101030190a3600019811461040b57600101600355005b015190508680610d14565b9250600687016000526020600020906000935b601f1984168510610eb7576001945083601f19811610610e9e575b505050811b016006850155610d2c565b015160001960f88460031b161c19169055868080610e8e565b81810151835560209485019460019093019290910190610e73565b909150600687016000526020600020601f840160051c810160208510610f1e575b90849392915b601f830160051c82018110610f0f575050610cfd565b60008155859450600101610ef9565b5080610ef3565b634e487b7160e01b600052604160045260246000fd5b60405162461bcd60e51b815260206004820152602160248201527f5472757374436861696e3a207072696e636970616c206d757374206265203e206044820152600360fc1b6064820152608490fd5b34610109576020366003190112610109576001600160a01b03610fab61158d565b1660005260006020526020600160406000200154604051908152f35b34610109576000366003190112610109576020600354604051908152f35b346101095760003660031901126101095733600052600060205260ff604060002054166110ae576040516080810181811067ffffffffffffffff821117610f25576040526001815260036020820160328152604083016000815260608401916000835233600052600060205261106f604060002095511515869060ff801983541691151516179055565b51600185015551600284015551910155604051603281527fe29d35093005f4d575e1003753426b57a7f64378ba73332eef9c6ccc2b8decd660203392a2005b60405162461bcd60e51b815260206004820152601e60248201527f5472757374436861696e3a20616c7265616479207265676973746572656400006044820152606490fd5b34610109576020806003193601126101095761110d61158d565b336000526000825261112660ff604060002054166115ff565b6001600160a01b03166000818152808352604090205490919060ff161561127d5781331461122d573360005260028152604060002082600052815260ff604060002054166111e957336000526002815260406000208260005281526040600020600160ff198254161790556000815260016040600020018054906005820180921161040b575581600052600081527ec908494d3f682d49ae1ea44ab67b0149b97bac6bf2d8dde60789afd8105cd6600160406000200154916040519283523392a3005b6064906040519062461bcd60e51b82526004820152601c60248201527f5472757374436861696e3a20616c726561647920656e646f72736564000000006044820152fd5b6084906040519062461bcd60e51b82526004820152602360248201527f5472757374436861696e3a2063616e6e6f7420656e646f72736520796f75727360448201526232b63360e91b6064820152fd5b6084906040519062461bcd60e51b82526004820152602360248201527f5472757374436861696e3a20656e646f72736565206e6f7420726567697374656044820152621c995960ea1b6064820152fd5b3461010957600036600319011261010957602060405160058152f35b34610109576020366003190112610109576004356000526001602052608060ff604060002060098101549082821692839260081c1690600c60018060a01b03910154169082611350575b604051931515845215156020840152604083015215156060820152f35b915081611333565b346101095760403660031901126101095761137161158d565b6001600160a01b03602435818116929083900361010957166000526002602052604060002090600052602052602060ff604060002054166040519015158152f35b34610109576020806003193601126101095760043533600052600082526113e060ff604060002054166115ff565b8060005260018252604060002060ff600782015416600381101561025e576114089015611655565b60018101546001600160a01b031633036115365760098101805460ff8116156114e65760ff8160081c16611495576101009061ff001916179055600b42910155604051916040835260086040840152673137b93937bbb2b960c11b606084015242908301527f6c56c94f2da7531e3fa2d7263d4f2e091ab52db1d545c0083231fe73e2d35de160803393a3005b60405162461bcd60e51b815260048101869052602360248201527f5472757374436861696e3a20626f72726f77657220616c7265616479207369676044820152621b995960ea1b6064820152608490fd5b60405162461bcd60e51b815260048101869052602260248201527f5472757374436861696e3a206c656e646572206d757374207369676e206669726044820152611cdd60f21b6064820152608490fd5b60405162461bcd60e51b815260048101849052602960248201527f5472757374436861696e3a206f6e6c7920626f72726f7765722063616e20636f6044820152683ab73a32b939b4b3b760b91b6064820152608490fd5b600435906001600160a01b038216820361010957565b90600182811c921680156115d3575b60208310146115bd57565b634e487b7160e01b600052602260045260246000fd5b91607f16916115b2565b90601f8019910116810190811067ffffffffffffffff821117610f2557604052565b1561160657565b60405162461bcd60e51b815260206004820152602160248201527f5472757374436861696e3a2063616c6c6572206e6f74207265676973746572656044820152601960fa1b6064820152608490fd5b1561165c57565b60405162461bcd60e51b815260206004820152601c60248201527f5472757374436861696e3a206c6f616e206e6f742070656e64696e67000000006044820152606490fd5b67ffffffffffffffff8111610f2557601f01601f191660200190565b3d156116e8573d906116ce826116a1565b916116dc60405193846115dd565b82523d6000602084013e565b606090565b605081101561170857603c111561170357601490565b601090565b50600c9056fea264697066735822122080cdf500cec58eaf2d6b99d0190aa791ffb0f5d69bf9f5079d9809ea5a4d327664736f6c63430008180033",
  "linkReferences": {},
  "deployedLinkReferences": {}
}